{
  "contractName": "PlatoonManagement",
  "abi": [
    {
      "constant": true,
      "inputs": [
        {
          "name": "",
          "type": "uint256"
        }
      ],
      "name": "platoons",
      "outputs": [
        {
          "name": "addr",
          "type": "address"
        },
        {
          "name": "depositAmount",
          "type": "uint256"
        },
        {
          "name": "entryTime",
          "type": "uint256"
        }
      ],
      "payable": false,
      "stateMutability": "view",
      "type": "function"
    },
    {
      "inputs": [],
      "payable": false,
      "stateMutability": "nonpayable",
      "type": "constructor"
    },
    {
      "payable": true,
      "stateMutability": "payable",
      "type": "fallback"
    },
    {
      "constant": false,
      "inputs": [],
      "name": "joinPlatoon",
      "outputs": [
        {
          "name": "res",
          "type": "bool"
        }
      ],
      "payable": false,
      "stateMutability": "nonpayable",
      "type": "function"
    },
    {
      "constant": false,
      "inputs": [],
      "name": "leavePlatoon",
      "outputs": [
        {
          "name": "res",
          "type": "bool"
        }
      ],
      "payable": false,
      "stateMutability": "nonpayable",
      "type": "function"
    },
    {
      "constant": false,
      "inputs": [
        {
          "name": "truckNumber",
          "type": "uint256"
        }
      ],
      "name": "calculatePayment",
      "outputs": [
        {
          "name": "",
          "type": "uint256"
        }
      ],
      "payable": false,
      "stateMutability": "nonpayable",
      "type": "function"
    },
    {
      "constant": false,
      "inputs": [],
      "name": "checkDoubleEntry",
      "outputs": [
        {
          "name": "",
          "type": "bool"
        }
      ],
      "payable": false,
      "stateMutability": "nonpayable",
      "type": "function"
    },
    {
      "constant": false,
      "inputs": [],
      "name": "checkSufficientDeposit",
      "outputs": [
        {
          "name": "",
          "type": "bool"
        }
      ],
      "payable": false,
      "stateMutability": "nonpayable",
      "type": "function"
    },
    {
      "constant": false,
      "inputs": [],
      "name": "checkFunds",
      "outputs": [],
      "payable": false,
      "stateMutability": "nonpayable",
      "type": "function"
    },
    {
      "constant": false,
      "inputs": [
        {
          "name": "i",
          "type": "uint256"
        }
      ],
      "name": "goodBey",
      "outputs": [],
      "payable": false,
      "stateMutability": "nonpayable",
      "type": "function"
    }
  ],
  "bytecode": "0x606060405260006001556001600360006101000a81548160ff021916908315150217905550341561002f57600080fd5b61090a8061003e6000396000f30060606040526004361061008e576000357c0100000000000000000000000000000000000000000000000000000000900463ffffffff16806308d233dc146100995780631d51f924146100ae57806328dd685c146100db5780632be2c4dc146100fe5780638815018e1461012b5780638c67f63a14610158578063ee685bf91461018f578063fc15a96914610200575b61009661022d565b50005b34156100a457600080fd5b6100ac610447565b005b34156100b957600080fd5b6100c16104b1565b604051808215151515815260200191505060405180910390f35b34156100e657600080fd5b6100fc60048080359060200190919050506105cc565b005b341561010957600080fd5b6101116106cd565b604051808215151515815260200191505060405180910390f35b341561013657600080fd5b61013e61022d565b604051808215151515815260200191505060405180910390f35b341561016357600080fd5b61017960048080359060200190919050506107a3565b6040518082815260200191505060405180910390f35b341561019a57600080fd5b6101b060048080359060200190919050506107da565b604051808473ffffffffffffffffffffffffffffffffffffffff1673ffffffffffffffffffffffffffffffffffffffff168152602001838152602001828152602001935050505060405180910390f35b341561020b57600080fd5b610213610833565b604051808215151515815260200191505060405180910390f35b600080600080600061023d6106cd565b1561024b5760009450610440565b610253610833565b156102615760009450610440565b600a9350600584111561043657339250349150429050600360009054906101000a900460ff16156102b057600a6001819055506000600360006101000a81548160ff0219169083151502179055505b600a600154141561037957600280548060010182816102cf9190610856565b916000526020600020906003020160006060604051908101604052808773ffffffffffffffffffffffffffffffffffffffff16815260200186815260200185815250909190915060008201518160000160006101000a81548173ffffffffffffffffffffffffffffffffffffffff021916908373ffffffffffffffffffffffffffffffffffffffff1602179055506020820151816001015560408201518160020155505050610431565b6060604051908101604052808473ffffffffffffffffffffffffffffffffffffffff1681526020018381526020018281525060026001548154811015156103bc57fe5b906000526020600020906003020160008201518160000160006101000a81548173ffffffffffffffffffffffffffffffffffffffff021916908373ffffffffffffffffffffffffffffffffffffffff1602179055506020820151816001015560408201518160020155905050600a6001819055505b61043b565b600080fd5b600194505b5050505090565b600080600091505b6002805490508210156104ad57610465826107a3565b60028381548110151561047457fe5b90600052602060002090600302016001015403905064e8d4a510008110156104a05761049f826105cc565b5b818060010192505061044f565b5050565b60008060008091505b6002805490508210156105c2576002828154811015156104d657fe5b906000526020600020906003020160000160009054906101000a900473ffffffffffffffffffffffffffffffffffffffff1673ffffffffffffffffffffffffffffffffffffffff163373ffffffffffffffffffffffffffffffffffffffff1614156105b557610544826107a3565b90508060028381548110151561055657fe5b906000526020600020906003020160010160008282540392505081905550806002600081548110151561058557fe5b9060005260206000209060030201600101600082825401925050819055506105ac826105cc565b600192506105c7565b81806001019250506104ba565b600092505b505090565b6002818154811015156105db57fe5b906000526020600020906003020160000160009054906101000a900473ffffffffffffffffffffffffffffffffffffffff1673ffffffffffffffffffffffffffffffffffffffff166108fc60028381548110151561063557fe5b9060005260206000209060030201600101549081150290604051600060405180830381858888f19350505050151561066c57600080fd5b8060018190555060028181548110151561068257fe5b9060005260206000209060030201600080820160006101000a81549073ffffffffffffffffffffffffffffffffffffffff021916905560018201600090556002820160009055505050565b600080600090505b60028054905081101561079a576002818154811015156106f157fe5b906000526020600020906003020160000160009054906101000a900473ffffffffffffffffffffffffffffffffffffffff1673ffffffffffffffffffffffffffffffffffffffff163373ffffffffffffffffffffffffffffffffffffffff16141561078d573460028281548110151561076657fe5b9060005260206000209060030201600101600082825401925050819055506000915061079f565b80806001019150506106d5565b600191505b5090565b60008060006002848154811015156107b757fe5b906000526020600020906003020160020154420391508190508092505050919050565b6002818154811015156107e957fe5b90600052602060002090600302016000915090508060000160009054906101000a900473ffffffffffffffffffffffffffffffffffffffff16908060010154908060020154905083565b600067016345785d8a000034101561084e5760009050610853565b600190505b90565b815481835581811511610883576003028160030283600052602060002091820191016108829190610888565b5b505050565b6108db91905b808211156108d757600080820160006101000a81549073ffffffffffffffffffffffffffffffffffffffff0219169055600182016000905560028201600090555060030161088e565b5090565b905600a165627a7a72305820ef528054caf4b19d54a02988d12f73e85bea5c451b477cc95e4a8343e89eadff0029",
  "source": "pragma solidity ^0.4.0;\r\n/**\r\n * The PlatoonManagement contract adds, tracks and compensates trucks in a platoon.\r\n */\r\ncontract PlatoonManagement {\r\n\tstruct Platoon {\r\n\t\taddress addr;\r\n\t\tuint depositAmount;\r\n\t\tuint entryTime;\r\n\t}\r\n\t\r\n\tuint collectedPayments;\r\n\tuint nextIndex = 0;\r\n\tPlatoon[] public platoons;\r\n\tbool firstRun = true;\r\n\t\r\n\tfunction PlatoonManagement () public {}\r\n    \r\n    function() payable public {\r\n        joinPlatoon();\r\n    }\r\n\t\r\n\tfunction joinPlatoon() public returns(bool res) {\r\n\t    if(checkDoubleEntry()) {return false;}\r\n\t    if(checkSufficientDeposit()) {return false;}\r\n\t\tuint reputation = 10;\r\n\t\t/*Query the reputation from somewhere instead of hardcoding it*/\r\n\t\tif (reputation > 5){\r\n\t\t    /*joining*/\r\n\t\t\taddress addr = msg.sender;\r\n\t\t\tuint depositAmount = msg.value;\r\n\t\t\tuint entryTime = block.timestamp;\r\n\t\t\tif (firstRun){nextIndex = 10; firstRun=false;}\r\n\t\t\tif(nextIndex==10){\r\n    \t\t\tplatoons.push(Platoon(addr, depositAmount, entryTime));\r\n\t\t\t} else {\r\n\t\t\t    platoons[nextIndex] = Platoon(addr, depositAmount, entryTime);\r\n\t\t\t    nextIndex = 10;\r\n\t\t\t}\r\n\t\t} else {\r\n\t\t    /*not joining*/\r\n\t\t\trevert();\r\n\t\t}\r\n\t\treturn true;\r\n\t}\r\n    \r\n\tfunction leavePlatoon() public returns(bool res) {\r\n\t    /*Pay according to time spend in the platoon.*/\r\n\t\tfor (uint i = 0; i < platoons.length; i++) {\r\n\t\t\tif(msg.sender == platoons[i].addr){\r\n\t\t\t    /*first guy leaving is special, he gets the funds of the contract*/\r\n\t\t\t\tuint paymentAmount = calculatePayment(i);\r\n\t\t\t\tplatoons[i].depositAmount -= paymentAmount;\r\n\t\t\t\tplatoons[0].depositAmount += paymentAmount;\r\n\t\t\t\t/*Transfer remaining deposit to the address of the leaving truck*/\r\n\t\t\t\tgoodBey(i);\r\n\t\t\t\treturn true;\r\n\t\t\t}\r\n\t\t}\r\n\t\treturn false;\r\n\t}\r\n\t\r\n\tfunction calculatePayment(uint truckNumber) public returns(uint) {\r\n\t    uint timeInPlatoon = (block.timestamp - platoons[truckNumber].entryTime);\r\n\t    uint paymentAmount = timeInPlatoon;\r\n\t    return paymentAmount;\r\n\t}\r\n\t\r\n\tfunction checkDoubleEntry() public returns(bool) {\r\n\t    for(uint i = 0; i < platoons.length; i++) {\r\n\t        if (msg.sender == platoons[i].addr) {\r\n\t            platoons[i].depositAmount += msg.value;\r\n\t            return false;\r\n\t        }\r\n\t    }\r\n\t    return true;\r\n\t}\r\n\t\r\n\tfunction checkSufficientDeposit() public returns(bool) {\r\n\t    if(msg.value < .1*1000000000000000000){return false;}\r\n\t    return true;\r\n\t}\r\n\t\r\n\tfunction checkFunds() public {\r\n\t    for (uint i = 0; i < platoons.length; i++){\r\n\t        uint remainingBalance = platoons[i].depositAmount - calculatePayment(i);\r\n\t        if (remainingBalance < 1000000000000) {\r\n\t            goodBey(i);\r\n\t        }\r\n\t    }\r\n\t}\r\n\t\r\n\tfunction goodBey(uint i) public {\r\n\t    platoons[i].addr.transfer(platoons[i].depositAmount);\r\n\t\tnextIndex = i;\r\n\t\tdelete platoons[i];\r\n\t}\r\n\t\r\n}",
  "sourcePath": "C:\\Users\\dolderer\\vlm\\contracts\\Platoon\\PlatoonManagement.sol",
  "compiler": {
    "name": "solc",
    "version": "0.4.19+commit.c4cbbb05.Emscripten.clang"
  },
  "schemaVersion": "1.0.1",
  "updatedAt": "2018-02-04T08:36:32.286Z"
}